{
  "contractName": "ContractRegistryContract",
  "abi": [
    {
      "constant": true,
      "inputs": [
        {
          "name": "",
          "type": "uint256"
        }
      ],
      "name": "registry",
      "outputs": [
        {
          "name": "contractAddress",
          "type": "address"
        },
        {
          "name": "registrationDate",
          "type": "uint256"
        },
        {
          "name": "category",
          "type": "string"
        }
      ],
      "payable": false,
      "stateMutability": "view",
      "type": "function"
    },
    {
      "constant": true,
      "inputs": [
        {
          "name": "",
          "type": "address"
        }
      ],
      "name": "registryCheck",
      "outputs": [
        {
          "name": "i",
          "type": "uint256"
        },
        {
          "name": "occupied",
          "type": "bool"
        }
      ],
      "payable": false,
      "stateMutability": "view",
      "type": "function"
    },
    {
      "constant": false,
      "inputs": [
        {
          "name": "contractAddress",
          "type": "address"
        },
        {
          "name": "timestamp",
          "type": "uint256"
        },
        {
          "name": "category",
          "type": "string"
        }
      ],
      "name": "register",
      "outputs": [],
      "payable": true,
      "stateMutability": "payable",
      "type": "function"
    },
    {
      "constant": false,
      "inputs": [
        {
          "name": "contractAddress",
          "type": "address"
        }
      ],
      "name": "remove",
      "outputs": [],
      "payable": true,
      "stateMutability": "payable",
      "type": "function"
    },
    {
      "constant": false,
      "inputs": [],
      "name": "collectFees",
      "outputs": [],
      "payable": false,
      "stateMutability": "nonpayable",
      "type": "function"
    },
    {
      "constant": true,
      "inputs": [],
      "name": "getAllContracts",
      "outputs": [
        {
          "name": "",
          "type": "address[]"
        }
      ],
      "payable": false,
      "stateMutability": "view",
      "type": "function"
    }
  ],
  "bytecode": "0x608060405234801561001057600080fd5b50610da3806100206000396000f3fe6080604052600436106100555760003560e01c806318d3ce961461005a57806329092d0e146100c65780635893253c1461010a578063b7aaf14d146101f8578063c879657214610268578063f11b1b881461027f575b600080fd5b34801561006657600080fd5b5061006f610364565b6040518080602001828103825283818151815260200191508051906020019060200280838360005b838110156100b2578082015181840152602081019050610097565b505050509050019250505060405180910390f35b610108600480360360208110156100dc57600080fd5b81019080803573ffffffffffffffffffffffffffffffffffffffff16906020019092919050505061044b565b005b34801561011657600080fd5b506101436004803603602081101561012d57600080fd5b81019080803590602001909291905050506107ab565b604051808473ffffffffffffffffffffffffffffffffffffffff1673ffffffffffffffffffffffffffffffffffffffff16815260200183815260200180602001828103825283818151815260200191508051906020019080838360005b838110156101bb5780820151818401526020810190506101a0565b50505050905090810190601f1680156101e85780820380516001836020036101000a031916815260200191505b5094505050505060405180910390f35b34801561020457600080fd5b506102476004803603602081101561021b57600080fd5b81019080803573ffffffffffffffffffffffffffffffffffffffff16906020019092919050505061089a565b60405180838152602001821515151581526020019250505060405180910390f35b34801561027457600080fd5b5061027d6108cb565b005b6103626004803603606081101561029557600080fd5b81019080803573ffffffffffffffffffffffffffffffffffffffff16906020019092919080359060200190929190803590602001906401000000008111156102dc57600080fd5b8201836020820111156102ee57600080fd5b8035906020019184600183028401116401000000008311171561031057600080fd5b91908080601f016020809104026020016040519081016040528093929190818152602001838380828437600081840152601f19601f820116905080830192505050505050509192919290505050610945565b005b60608060008054905060405190808252806020026020018201604052801561039b5781602001602082028038833980820191505090505b50905060008090505b60008054905081101561044357600081815481106103be57fe5b906000526020600020906003020160000160009054906101000a900473ffffffffffffffffffffffffffffffffffffffff168282815181106103fc57fe5b602002602001019073ffffffffffffffffffffffffffffffffffffffff16908173ffffffffffffffffffffffffffffffffffffffff168152505080806001019150506103a4565b508091505090565b674563918244f400003410156104c9576040517f08c379a000000000000000000000000000000000000000000000000000000000815260040180806020018281038252600e8152602001807f666565206e6f7420656e6f75676800000000000000000000000000000000000081525060200191505060405180910390fd5b6000808054905014156104db576107a8565b600160008273ffffffffffffffffffffffffffffffffffffffff1673ffffffffffffffffffffffffffffffffffffffff16815260200190815260200160002060010160009054906101000a900460ff16610534576107a8565b6000600160008373ffffffffffffffffffffffffffffffffffffffff1673ffffffffffffffffffffffffffffffffffffffff16815260200190815260200160002060010160006101000a81548160ff02191690831515021790555060016000805490501115610744576000600160008373ffffffffffffffffffffffffffffffffffffffff1673ffffffffffffffffffffffffffffffffffffffff1681526020019081526020016000206000015490506000600160008054905003815481106105f957fe5b90600052602060002090600302016000828154811061061457fe5b90600052602060002090600302016000820160009054906101000a900473ffffffffffffffffffffffffffffffffffffffff168160000160006101000a81548173ffffffffffffffffffffffffffffffffffffffff021916908373ffffffffffffffffffffffffffffffffffffffff16021790555060018201548160010155600282018160020190805460018160011615610100020316600290046106ba929190610c03565b5090505080600160008084815481106106cf57fe5b906000526020600020906003020160000160009054906101000a900473ffffffffffffffffffffffffffffffffffffffff1673ffffffffffffffffffffffffffffffffffffffff1673ffffffffffffffffffffffffffffffffffffffff16815260200190815260200160002060000181905550505b600080548061074f57fe5b6001900381819060005260206000209060030201600080820160006101000a81549073ffffffffffffffffffffffffffffffffffffffff021916905560018201600090556002820160006107a39190610c8a565b505090555b50565b600081815481106107b857fe5b90600052602060002090600302016000915090508060000160009054906101000a900473ffffffffffffffffffffffffffffffffffffffff1690806001015490806002018054600181600116156101000203166002900480601f0160208091040260200160405190810160405280929190818152602001828054600181600116156101000203166002900480156108905780601f1061086557610100808354040283529160200191610890565b820191906000526020600020905b81548152906001019060200180831161087357829003601f168201915b5050505050905083565b60016020528060005260406000206000915090508060000154908060010160009054906101000a900460ff16905082565b600073e98a2ca17f4a56b07e458ed85e00ebbfde6f415c90508073ffffffffffffffffffffffffffffffffffffffff166108fc3073ffffffffffffffffffffffffffffffffffffffff16319081150290604051600060405180830381858888f19350505050158015610941573d6000803e3d6000fd5b5050565b670de0b6b3a76400003410156109c3576040517f08c379a000000000000000000000000000000000000000000000000000000000815260040180806020018281038252600e8152602001807f666565206e6f7420656e6f75676800000000000000000000000000000000000081525060200191505060405180910390fd5b600160008473ffffffffffffffffffffffffffffffffffffffff1673ffffffffffffffffffffffffffffffffffffffff16815260200190815260200160002060010160009054906101000a900460ff1615610a86576040517f08c379a000000000000000000000000000000000000000000000000000000000815260040180806020018281038252601c8152602001807f636f6e747261637420616c72656164792072656769737472617465640000000081525060200191505060405180910390fd5b600060405180606001604052808573ffffffffffffffffffffffffffffffffffffffff168152602001848152602001838152509080600181540180825580915050906001820390600052602060002090600302016000909192909190915060008201518160000160006101000a81548173ffffffffffffffffffffffffffffffffffffffff021916908373ffffffffffffffffffffffffffffffffffffffff160217905550602082015181600101556040820151816002019080519060200190610b51929190610cd2565b5050505060018060008573ffffffffffffffffffffffffffffffffffffffff1673ffffffffffffffffffffffffffffffffffffffff16815260200190815260200160002060010160006101000a81548160ff021916908315150217905550600160008054905003600160008573ffffffffffffffffffffffffffffffffffffffff1673ffffffffffffffffffffffffffffffffffffffff16815260200190815260200160002060000181905550505050565b828054600181600116156101000203166002900490600052602060002090601f016020900481019282601f10610c3c5780548555610c79565b82800160010185558215610c7957600052602060002091601f016020900482015b82811115610c78578254825591600101919060010190610c5d565b5b509050610c869190610d52565b5090565b50805460018160011615610100020316600290046000825580601f10610cb05750610ccf565b601f016020900490600052602060002090810190610cce9190610d52565b5b50565b828054600181600116156101000203166002900490600052602060002090601f016020900481019282601f10610d1357805160ff1916838001178555610d41565b82800160010185558215610d41579182015b82811115610d40578251825591602001919060010190610d25565b5b509050610d4e9190610d52565b5090565b610d7491905b80821115610d70576000816000905550600101610d58565b5090565b9056fea165627a7a72305820ae061362f9d55947fabfa988166f628ec9915fe4431c7aeaa5a4baa68685a3e10029",
  "source": "pragma solidity >=0.5.0 <0.7.0;\n\ncontract ContractRegistryContract {\n    struct Registration {\n        address contractAddress;\n        uint256 registrationDate;\n        string category;\n    }\n\n    struct Index {\n        uint256 i;\n        bool occupied;\n    }\n\n    Registration[] public registry;\n    mapping(address => Index) public registryCheck;\n\n    function register(address contractAddress, uint256 timestamp, string memory category)\n        public\n        payable\n    {\n        // to avoid trash being registrated ..\n        if (msg.value < 1 ether) revert(\"fee not enough\");\n\n        // stop if element already in array\n        if (registryCheck[contractAddress].occupied)\n            revert(\"contract already registrated\");\n\n        registry.push(Registration(contractAddress, timestamp, category));\n        registryCheck[contractAddress].occupied = true;\n        registryCheck[contractAddress].i = registry.length - 1;\n    }\n\n    function remove(address contractAddress) public payable {\n        // to avoid trash being registrated ..\n        if (msg.value < 5 ether) revert(\"fee not enough\");\n\n        // Nothing to remove\n        if (registry.length == 0) return;\n\n        // element to remove not in array\n        if (!registryCheck[contractAddress].occupied) return;\n\n        // mark element as not in array anymore\n        registryCheck[contractAddress].occupied = false;\n\n        // avoiding gaps in array by moving last element of array to index\n\t\t// (array is deleted by overriding it)\n        if (registry.length > 1) {\n            // Index of element to remove\n            uint256 index = registryCheck[contractAddress].i;\n            // Move last element in array to index\n            registry[index] = registry[registry.length - 1];\n            // Set new index of moved element\n            registryCheck[registry[index].contractAddress].i = index;\n        }\n        // deleting last element (not needed anymore)\n        registry.pop();\n    }\n\n    function collectFees() public {\n        address payable receiver = 0xE98A2cA17F4A56b07e458Ed85e00eBbFdE6f415C;\n        receiver.transfer(address(this).balance);\n    }\n\n    function getAllContracts() public view returns (address[] memory) {\n        address[] memory addresses = new address[](registry.length);\n        for (uint256 i = 0; i < registry.length; i++)\n            addresses[i] = registry[i].contractAddress;\n\n        return addresses;\n    }\n}\n\n",
  "sourcePath": "/home/andi/fhdo/Lehrveranstaltungen/Bachelorarbeit/Anwenderfreundliche Smart Contracts/meivsm/contracts/ContractRegistryContract.sol",
  "compiler": {
    "name": "solc",
    "version": "0.5.8+commit.23d335f2.Emscripten.clang"
  },
  "schemaVersion": "3.0.15",
  "updatedAt": "2020-02-09T01:12:25.883Z",
  "devdoc": {
    "methods": {}
  },
  "userdoc": {
    "methods": {}
  }
}